:020000040800F2
:1000000030CE01209D010008C3500008C11F000828
:10001000C150000859050008055F000800000000F5
:10002000000000000000000000000000155C000857
:100030001906000800000000C5500008175C000801
:10004000B7010008B7010008B7010008B7010008B0
:10005000B7010008B7010008B7010008B7010008A0
:10006000B7010008B7010008B7010008B701000890
:10007000B7010008B7010008B7010008B701000880
:10008000B7010008B7010008B7010008B701000870
:10009000B7010008B7010008B7010008B701000860
:1000A000B7010008B7010008B7010008B701000850
:1000B000B7010008B7010008B7010008B701000840
:1000C000B7010008B7010008B7010008B701000830
:1000D000B7010008ED5E0008F95E0008B7010008EE
:1000E000B7010008B7010008B7010008B701000810
:1000F000B7010008B7010008B7010008B701000800
:10010000B7010008B7010008B7010008B7010008EF
:10011000B7010008B7010008B7010008B7010008DF
:10012000B7010008B7010008B70100085D05000825
:10013000B7010008B7010008B7010008B7010008BF
:10014000B7010008B7010008B7010008B7010008AF
:10015000B701000869050008B7010008B7010008E9
:10016000B7010008B7010008B7010008B70100088F
:10017000B7010008B7010008B7010008000000003F
:10018000B7010008B7010008DFF80CD000F07EF9D5
:10019000004800475D7A000830CE012006488047BD
:1001A00006480047FEE7FEE7FEE7FEE7FEE7FEE75C
:1001B000FEE7FEE7FEE7FEE7B15C00088901000804
:1001C0002DE9F05F0546002092469B46884606468C
:1001D000814640241BE0284641464746224600F01F
:1001E000E7F853465A46C01A914110D311461846B3
:1001F000224600F0CEF82D1A67EB01084F46224642
:100200000120002100F0C5F817EB00094E41201E27
:10021000A4F10104DFDC484631462A464346BDE8E6
:10022000F09FD2B201E000F8012B491EFBD27047CB
:100230000022F6E710B513460A4604461946FFF7B2
:10024000F0FF204610BD10B5002200E0521C835C78
:100250008C5CA34201D1002BF8D1D8B2E1B2401A94
:1002600010BD2DE9FE4F81EA030404F0004421F0A3
:10027000004100944FF0000B23F0004350EA0104CA
:100280005ED052EA03045BD0C3F30A54C1F30A55AB
:100290002C44A4F2F3340194A0FB0254C1F31301E3
:1002A00041F48011C3F3130343F4801301FB0244B0
:1002B00000FB034E840A970A44EA815447EA8357B5
:1002C000A4FB076802958D0A05FB07854FEA932C6E
:1002D00004FB0C542705029D4FEA065847EA1637DF
:1002E000B5EB08056EEB070C870E920E47EA8117F7
:1002F00042EA8312A7FB0201B6EB0B0164EB000498
:100300002B0D43EA0C335E1844EB1C50DA46514681
:10031000E7FB0201C5F313044FEA0B3343EA14531E
:100320004FEA0432019C43EA0603A4F10C04029450
:10033000009CCDE900B400F05AF803B0BDE8F08F9E
:1003400000200146F9E70EB540F233410291002149
:10035000CDE900110A460B4600F049F803B000BD94
:10036000C1F30A5210B5C1F3130140F2FF3341F457
:1003700080119A4201DA002010BD40F233439A42C4
:10038000A2F2334203DC524200F012F810BD90405A
:1003900010BD202A04DB203A00FA02F10020704749
:1003A0009140C2F1200320FA03F3194390407047B3
:1003B000202A04DB203A21FA02F00021704721FABA
:1003C00002F3D040C2F12002914008431946704721
:1003D00010B5141E73F1000408DA401C41F100014D
:1003E00092185B411A4301D120F0010010BD2DE9A4
:1003F000F04D92469B4611B1B1FA81F202E0B0FA9B
:1004000080F220329046FFF7C4FF04460F4640EAD0
:100410000A0041EA0B0153465A46084313D01146DD
:1004200053EA010019D0C8F140025046FFF7C0FF5F
:1004300005460E46504659464246FFF7AAFF084376
:1004400005D0012004E020463946BDE8F08D0020AB
:10045000054346EAE0762C4337430A986305E40AED
:10046000A0EB08000022FD0A44EA47540A3002D5F6
:1004700000200146E9E7010510196941DDE9084559
:1004800000196941BDE8F04DA2E70000064C074D98
:1004900006E0E06840F0010394E807009847103454
:1004A000AC42F6D3FFF774FE8C730308CC730308D9
:1004B0000146014801F038B9E0C0012010B50448F8
:1004C00001F044F9042801D0012010BD002010BD26
:1004D000E0C0012010B500F015F8012801D001207E
:1004E00010BD074801F048F9040006D14FF400613F
:1004F000034800F0BFFF00B10124204610BD0000FA
:10050000E0C0012008B501208DF800009DF8000032
:1005100008BD0000134610B50A46014600240348F2
:1005200001F016FA00B10124204610BDE0C0012000
:10053000014901208860704778C00120134610B53A
:100540000A4601460024034801F098FA00B101244C
:10055000204610BDE0C00120FEE70000014800F089
:1005600053B9000064C10120014800F04DB90000FA
:10057000C4C1012001681823CAB2103AB2FBF3F2D9
:10058000054B6FF30901032A9B5CC36500D9091D64
:10059000816508467047000076C7000810B501461F
:1005A00000208B698A6A4FF0C07453B1B3F5005FC5
:1005B00015D072B1012A0CD0022A0AD0032A09D11F
:1005C00004E01AB1012A06D0022A03D1C96AC9017E
:1005D00000D5012010BDC96AA142FAD010BD002A81
:1005E000F7D0012AF2D0022AF3D0032AF3D010BDAB
:1005F00030B50468256825F48025256004686360AB
:100600008368402B036803D099600068C26030BDE6
:100610009A600068C16030BD704772B6FEE7002284
:10062000AFF3008030B50E4B054601205C7A002CFC
:1006300014D1587A1C54587A03EB800045605D7AD7
:1006400003F108002A54587A421C5A72303008705C
:100650003A2048702F208870CC70002030BD0000F8
:1006600024C2012030B5B3F5804F05D06FF0704142
:1006700040F82210002030BD8C690B688D68234340
:100680004C688989240144EA0524234343EA014153
:1006900050F82230014C23401943E9E70000F0CF25
:1006A00010B50A6850F8223023F0010340F82230D8
:1006B0008C68082C23D000234A682243CC681C4352
:1006C0000B6922431A434B690E4C1A43CB691A43F8
:1006D0000B6A1A434B6A1A438B6A1A43CB6A1A4352
:1006E0000B6B1A438B691343CA6B09681A4350F8A2
:1006F0002130A343134340F82130002010BD402394
:10070000DAE700007FFF0F0030B5D1E9003443EA9B
:1007100004138C688D89240244EA054423430C8A1F
:10072000094D00EB820005EB045423430C7D6D0161
:1007300005EB0464896923430B43416801F04041A0
:100740000B434360002030BD0000F0FF2DE9F04175
:100750000446876D00F046FB064694F835000025F8
:10076000022806D08020606584F834500120BDE85E
:10077000F0812068016821F016010160206841695C
:1007800021F080014161206C08B9A06C20B1206883
:10079000016821F0080101602068016821F0010171
:1007A00001600CE000F01EFB801B052807D920200B
:1007B0006065032084F8350084F83450D7E720685A
:1007C0000068C007EED194F85C103F208840B86004
:1007D000012084F8350084F834500020C7E790F8F1
:1007E0003510022903D08021416501207047052181
:1007F00080F835100068016821F0010101600020D7
:100800007047406D704700002DE9F84304464FF0F3
:100810000009CDF8009063484FF41651A56D0068AB
:10082000B0FBF1F72E6894F85C10082000FA01F193
:1008300031420FD021680A6852070BD50A6822F0AE
:1008400004020A6094F85C108840A860606D40F073
:100850000100606594F85C104FF0010808FA01F09F
:10086000304208D021684969090604D5A860606D46
:1008700040F00200606594F85C100420884030422B
:1008800008D021680968890704D5A860606D40F028
:100890000400606594F85C1010208840304218D045
:1008A00021680968090714D5A86020680168490310
:1008B00004D50068000308D5A16C07E00168C905EC
:1008C00003D4016821F008010160216C09B12046C0
:1008D000884794F85C1020208840304231D021684D
:1008E0000968C9062DD5A86094F835000528206848
:1008F000016806D0490347D5006800031DD4616C28
:100900001CE021F0160101602068416921F080019E
:100910004161206C08B9A06C20B12068016821F009
:100920000801016094F85C103F208840A86084F8BA
:10093000358084F83490216D1FE0E16B09B12046C9
:100940008847606D00282BD0606DC00714D005204B
:1009500084F835002068016821F0010101600098E9
:10096000401C0090B84203D820680068C007F6D148
:1009700084F8358084F83490E16C002910D001B0FF
:100980002046BDE8F04308470168C905D5D4016891
:1009900021F01001016084F8358084F83490CCE7B0
:1009A000BDE8F883080000202DE9F041044600F07E
:1009B00019FA06465CB1022084F83500002584F857
:1009C00034502068016821F0010101600DE0012030
:1009D000BDE8F08100F006FA801B052805D920202B
:1009E0006065032084F83500F2E720680068C007DE
:1009F000F0D12268116820480140D4E9010318436E
:100A0000D4E903363343184363691843A369184391
:100A1000E3691843236A18430843616A042903D130
:100A2000D4E90B1319430843106020684069666AD3
:100A300020F0070130460E43012704280CD1A06A9C
:100A40000643E06A40B12046FFF7A8FD20B14020F0
:100A5000606584F83570BAE7206846612046FFF784
:100A600089FD94F85C203F2191408160656584F8A0
:100A700035700020ACE700003F8010F02DE9F04118
:100A80000446866D90F83400002501280DD0012021
:100A900084F8340094F835700020012F07D084F8D2
:100AA000340002252846BDE8F0810220FBE702273A
:100AB00084F8357060652046FFF79AFD94F85C1065
:100AC0003F208840B0602068016841F01601016055
:100AD000206C20B12068016841F0080101602068A5
:100AE000016841F001010160DCE7000070B50446D7
:100AF00000F078F90546601C02D0044800780444F0
:100B000000F070F9401BA042FAD370BD6CC0012008
:100B100010B5044600F0A2FA0849B0FBF1F001F06C
:100B20006DF8601EFFF7E2FF00F098FA4FF47A715B
:100B3000B0FBF1F0BDE8104001F060B840420F009A
:100B40002DE9F04186B014216846FFF771FB20487B
:100B50000168002939D1012101601E480024016883
:100B600041F00101016000684FF4805800F001007D
:100B70000C27CDF80080CDE90470032602250396EA
:100B8000CDE901546946144800F02EF84FF6807004
:100B9000CDE9000502AA694682E8D0000F4800F0BE
:100BA00023F84CF23370CDE9000502AA694682E8C9
:100BB000D0000B4800F018F802AA694682E8D0007D
:100BC000CDE90085074800F00FF806B0BDE8F081D8
:100BD00064C0012038380240001402400010024076
:100BE000000C0240001802402DE9F84FDFF8BCA1CC
:100BF0000022012503264FF00F090AF1040BAAF188
:100C0000040E00BF0B6805FA02F42340A34270D122
:100C10000F7907F00307012F01D0022F16D1876843
:100C20004FEA420806FA08FC27EA0C07D1F80CC084
:100C30000CFA08FC4CEA070CC0F808C04768A74348
:100C40000C79C4F3001494403C4344600C79E443B1
:100C5000A4070AD0C4684FEA420C06FA0CF7BC435A
:100C60008F6807FA0CF72743C7600C7904F0030478
:100C7000022C12D1D40800EB840CDCF8204057077A
:100C8000FF0E09FA07F824EA0804D1F8108008FAE0
:100C900007F848EA0408CCF8208004684FEA420CC0
:100CA00006FA0CF7BC430F7907F0030707FA0CF7B5
:100CB000274307604C6814F4403F70D03C4C2768D1
:100CC00047F480472760246822F0030704F4804437
:100CD0000094384C07EB040CDCF8084897074FEAFF
:100CE000177809FA08F7BC43334FB84202D10027FE
:100CF00024E054E0314FB84201D101271EE0304FCB
:100D0000B84201D1022719E02E4FB84201D1032782
:100D100014E02D4FB84201D104270FE02B4FB84209
:100D200001D105270AE02A4FB84201D1062705E084
:100D3000284FB84201D1072700E0082707FA08F733
:100D40002743CCF80878DAF800405746D1F804C0B9
:100D50009C435FEACC2C00D51C433C60DBF8004090
:100D60005F46D1F804C09C435FEA8C2C00D51C433D
:100D70003C60DEF800407746D1F804C09C435FEA4F
:100D80008C3C00D51C433C60084F083F3C68D1F8C0
:100D900004C09C435FEACC3C00D51C433C60521C21
:100DA000102AFFF42FAFBDE8F88F0000083C014087
:100DB000443802400030014000000240000402407C
:100DC00000080240000C02400010024000140240E3
:100DD00000180240001C02400AB1816170470904FA
:100DE000FBE7000001488068704700006CC00120EC
:100DF0000248816802781144816070476CC001200C
:100E00000B4810B5016841F400710160016841F4BC
:100E100080610160016841F480710160032000F08D
:100E200071F8002000F006F800F024F8002010BD52
:100E3000003C024070B50D4D04464FF47A7128789D
:100E4000B1FBF0F00A490968B1FBF0F000F0D6FE02
:100E500048B9102C07D200222146501E00F032F86B
:100E600000206C6070BD012070BD00006CC00120CE
:100E7000080000200B4882B0016841F48041016005
:100E8000006800F4804000900648001F016841F0AF
:100E900080510160006800F080500090052002B091
:100EA00000F030B844380240002809DB00F01F028F
:100EB000012191404009800000F1E020C0F80011BC
:100EC00070470000F0B40E4B1B680C46C3F30223BE
:100ED000C3F10705042D00D90425191D072901D2E6
:100EE000002300E0DB1E012606FA05F1491E214021
:100EF00099409E40761E16403143F0BC05F018B86C
:100F00000CED00E0064900F0070208684FF6FF0309
:100F1000184040EA0220034A10430860704700006E
:100F20000CED00E00000FA052DE9F0470E46050043
:100F300065D0DFF81481D8F80000F7B200F00700A0
:100F4000B04207D288F80070D8F8000000F007001F
:100F5000B04254D128683D4C810712D5400703D5D3
:100F6000206840F4E05020602878000703D520680E
:100F700040F4604020602068A96820F0F000084339
:100F800020602878C0072DD03049686808390128CA
:100F900012D0022813D0032811D00968890700292C
:100FA0002DDA216821F0030101432160FFF71AFFC8
:100FB000814641F2883A0EE009688903EFE7096843
:100FC0008901ECE7FFF70EFFA0EB0901514502D9BB
:100FD0000320BDE8F0872068696800F00C00B0EBE2
:100FE000810FEFD1D8F80010404601F00701B1425F
:100FF00007D90770006800F00700B04201D0012057
:10100000E7E72878400705D52068E96820F4E05034
:10101000084320602878000706D52068296920F455
:10102000604040EAC100206000F03EF82168084AB4
:10103000C1F30311515CC8400649086006480068C6
:10104000FFF7F8FE0020C4E7003C024008380240E9
:101050007EC700080800002070C001200148006819
:10106000704700000800002004480549006809682E
:10107000044AC1F38221515CC84070470800002037
:10108000083802408EC7000804480549006809680E
:10109000044AC1F34231515CC84070470800002047
:1010A000083802408EC70008154810B5006810F0D7
:1010B0000C02144813D04110042A0FD0082A0ED174
:1010C0000F4C241F2268236802F03F025B0207D501
:1010D0002068C0F38810A0FB010106E0084610BD9F
:1010E0002168C1F38811A1FB00010023FFF768F814
:1010F0002168C1F30141491C4900B0FBF1F010BD6A
:10110000083802400024F4002DE9F84F04006ED0A6
:101110002078DFF84C93C007A9F104054AD009F103
:1011200004000168C1F38101012908D00068C0F3FF
:10113000810002280AD1D9F80000400206D52868AB
:10114000800337D560680028E1D033E06068B0F5EF
:10115000803F10D0B0F5A02F286810D020F4803048
:101160002860286820F4802028606068A8B1FFF714
:1011700039FE06460DE0286840F48030F4E740F47C
:1011800080202860F7E700BFFFF72CFE801B642853
:1011900073D828688003F7D50CE0FFF723FE0646D6
:1011A00005E000BFFFF71EFE801B6428F0D828680A
:1011B0008003F7D42078DFF8AC8280074FF0000A74
:1011C0003ED5A748001D016811F00C0F08D000683B
:1011D000C0F3810002280BD1D9F80000400207D4E7
:1011E0002868800716D5E068012800D112E033E1B5
:1011F000E068B8B10120C8F80000FFF7F3FD06462B
:1012000005E000BFFFF7EEFD801B0228C0D828686C
:101210008007F7D52868216920F0F80040EAC1006E
:1012200028600DE0C8F800A0FFF7DCFD064604E0EA
:10123000FFF7D8FD801B02281FD828688007F7D445
:101240002078000722D5864F87486169703771B1D1
:1012500001210160FFF7C6FD064604E0FFF7C2FD6D
:10126000801B022809D838688007F7D50EE0C0F83F
:1012700000A0FFF7B7FD064605E082E0FFF7B2FDEC
:10128000801B02287DD838688007F7D42078400773
:1012900068D5DFF8CCB100270BF13C0BDBF8000080
:1012A000C0000BD4DBF8001041F08051CBF80010E7
:1012B000DBF80000012700F0805000906B4E306892
:1012C000C00510D4306840F480703060FFF78AFDAC
:1012D000009005E0FFF786FD0099401A022850D8DB
:1012E0003068C005F6D55E4EA0686C3601280FD078
:1012F0000528306810D020F001003060306820F000
:1013000004003060A068B8B1FFF76CFD00900FE0FA
:10131000306840F00100F4E740F004003060F7E787
:10132000FFF760FD0099411A41F28830814266D88A
:1013300030688007F4D50EE0FFF754FD009007E019
:10134000FFF750FD0099411A41F28830814256D88A
:1013500030688007F4D42FB1DBF8001021F0805101
:10136000CBF80010A069C8B33D49091D0968C1F355
:10137000810102294AD00228504607D0C8F86000EF
:1013800000E03CE0FFF72EFD04463BE04746C8F88E
:101390006000FFF727FD064605E000BFFFF722FDCE
:1013A000801B02282BD828688001F7D4D4E90701D4
:1013B0000843A16A2E4A490802EB0141626A41EAE8
:1013C0008211084394F82C1040EA0161C9F800101A
:1013D00001203866FFF706FD044606E03EE000BF48
:1013E000FFF700FD001B022809D828688001F7D507
:1013F00034E000BFFFF7F6FC001B022802D90320EF
:10140000BDE8F88F28688001F4D427E00128F7D0E0
:10141000D9F80000E26900F4800191421CD1226AEF
:1014200000F03F01914217D147F6C071626A014056
:10143000B1EB821F10D1A26A4FF0FF3300F44031AC
:1014400003EB5202B1EB024F06D194F82C1000F0DE
:101450007060B0EB016F01D00120D1E70020CFE731
:101460000438024000004742800E474200700040AE
:101470000000FFFF2DE9FE430446002603200D4631
:1014800084F83400606C03285ED0B5F5805F5BD0D3
:101490004FF4006700204FF08068BD421FD18146A5
:1014A000009001900021206803F023FE800113D4F6
:1014B0006946204604F0C0F907000DD101984003A9
:1014C00034D5B4F850000104206803F03EFE070054
:1014D00002D10221206823E0A06B384328E01DB12F
:1014E000A06B40F0006023E0814600900190002155
:1014F000206803F0FEFD8001EED46946204604F02A
:101500009BF90700E8D10198C0030FD5B4F850004B
:101510000104206803F019FE0700DDD100212068D6
:1015200003F05FFE0700D7D14F46D5E74746D3E724
:10153000A063A06B144F4FF0010848B12068876387
:1015400084F8348001260EE0A06B40F08050EFE775
:10155000211DD4E9050C0EC9CDE90050CDF808C015
:10156000206803F0C9FD4FF40071206803F020FEED
:1015700028B121688F63A16B0143A163012684F820
:1015800034803046BDE8FE83FF0540007047000010
:10159000F0B5426E920F0A70426EC2F383624A70D7
:1015A000426EC2F301628A70426E120CCA70B0F8C9
:1015B0006420120A0A7190F864204A71826E120D3A
:1015C000CA80826EC2F303420A72B0F86820C2F386
:1015D000C0324A72B0F86820C2F380328A72B0F822
:1015E0006820C2F34032CA72B0F86820C2F30032F9
:1015F0000A7300264E73426C4FF40075012462B1E9
:10160000012A3AD0026847499163816B41F08051C9
:10161000816380F834400120F0BDB0F86820C36ECB
:101620009205120D42EA93720A61C26EC2F3C2625F
:101630000A75C26EC2F302624A75C26EC2F34252AA
:101640008A75C26EC2F38242CA75C26EC2F3C232DA
:101650000A760A69521C42650B7E03F007039B1C45
:101660009A4042650B7A03F00F0704FA07F383658B
:101670005B0A5A43C0E917250EE090F86820C36E54
:101680009206920A42EA13420A610A69521C9202C5
:101690004265C0E91652056630F86C2FC2F38032FD
:1016A00001F8192F0288C2F3C6124A70027802F0BC
:1016B0007F028A704268D20FCA704268C2F34172D8
:1016C0000A714268C2F382624A714268C2F383526D
:1016D0008A714268C2F34052CA710E724268C2F304
:1016E00000424A728288C2F3C0328A728288C2F390
:1016F0008032CA728288C2F340320A738288C2F38F
:1017000000324A738288C2F381228A738288C2F3CC
:101710000122CA730079C0F3460008744C7400209B
:10172000F0BD0000FF054000426C0A60826C4A6018
:10173000C26C8A60026DCA60426D0A61826D4A6144
:10174000C26D8A61006EC8610020704770B50446A2
:10175000B0F8500000250104206803F02AFE18B1FB
:10176000A16B0143A16304E00021206803F0C1FCE8
:101770000546C5F3432070BD70B504000ED094F843
:101780003400002518B92577204600F04FF80320D3
:1017900084F83400204600F00BF808B1012070BD39
:1017A000A5632563012084F83400002070BD00008B
:1017B000FEB50025044676200095CDE90150294666
:1017C0000B460A46206803F097FC48BB154E46F8C6
:1017D000A05F206803F0A2FC012535600220FFF71E
:1017E00085F9204604F00CF930B100BF84F834507C
:1017F000A16B0143A16313E0204604F08AF800289E
:10180000F4D14FF40071206803F0D2FC002808D016
:10181000226805499163A16B0143A16384F83450A8
:101820000120FEBD00802542FF0540002DE9F04F5C
:1018300087B0054614216846FEF7FAFC3E49286841
:10184000884276D13D48002400683C4940F400605D
:101850000860086800F40060059038481438016892
:1018600041F004010160016801F004010591016883
:1018700041F00801016000684FF0020800F0080024
:1018800005904FF4F850CDE9000802AA03274FF065
:101890000C0982E8900269462948FFF7A5F902AAD7
:1018A000042682E89002CDE9006869462548FFF7E2
:1018B0009BF9DFF89880244940464FF0006902C048
:1018C0004FF4806BE0E802948914E0E8024B4FF09B
:1018D000200AA0E81204D0C04F0204604046C8F8B5
:1018E0003070FFF761F808B1FEF797FE174C164805
:1018F000C5F8408060344830C8F83850C4E9000961
:101900004020A0600020C4E9030B4FF48051C4F8CC
:101910001CA0C4E90510C4E9080603212763C4E933
:101920000A102046FFF740F808B1FEF776FEEC6398
:10193000A56307B0BDE8F08F002C01404438024099
:1019400000080240000C02405864024064C10120BB
:101950002DE9F04786B01F460446154639B194F884
:101960003400012807D0022006B0BDE8F087A06B44
:1019700040F0006008E00020A063E36DEA199A429D
:1019800004D9A06B40F00070A06369E0032284F8E2
:10199000342022688146D0622268D36B40F22A3616
:1019A0003343D363236C2F4ADA63236C2E4ADA6401
:1019B000226C1065226C9060206C0068026822F036
:1019C000C002026020680A46266C4FEA472800F1F0
:1019D00080014FEA98033046FFF750F8DFF88CA0FB
:1019E000012670B12068C16B21F49571C163216833
:1019F000C1F838A0A06B40F08040A06384F8346048
:101A00002EE01B480660606C012800D06D024FF08C
:101A1000FF30CDE900089020029002200596CDE924
:101A200003096946206803F04EFB012F06D9822086
:101A300020632946206803F02DFC05E08120206307
:101A40002946206803F03FFC00288DD02268C2F8A8
:101A500038A0A16B0143A16384F83460C4F83090CE
:101A6000012081E7E957000885570008FF0540007D
:101A70008C85254210B5FEF75BFD10BD2DE9F04FBA
:101A80005FEA010B87B01E460446114607D094F862
:101A90003400012807D0022007B0BDE8F08FA06B0A
:101AA00040F0006008E00025A563E26D88199042CF
:101AB00004D9A06B40F00070A06356E0032084F8C6
:101AC00034002068C5622068C26B40F21A2942EADD
:101AD0000902C263E26B2D48D063E26B2C48D064EC
:101AE000E06B0565606C012800D049024FF090085A
:101AF000012E05D9A0202063206803F0A5FC04E096
:101B0000C4F83080206803F0B8FCDFF888A0012713
:101B100030B12268C2F838A0A16B0143A16321E073
:101B20001D480760E16B40208860E06B0068016839
:101B300021F0C00141F04001016022687602B30843
:101B400059468032E06BFEF799FF80B12068C16B87
:101B500021EA0901C1632168C1F838A0A06B40F0F7
:101B60008040A06384F834702563012094E74FF02F
:101B7000FF30CDE90006CDE90285CDE9045769467D
:101B8000206803F0A0FA002086E700002B58000828
:101B900085570008FF0540008C85254270B5154625
:101BA0000E46040003D094F8490010B107E001206C
:101BB00070BD002084F84800204600F01DF804F1B4
:101BC00008012068FEF76CFD3146A2682068FEF728
:101BD0009BFDD4E901022946236BFEF743FD2168F2
:101BE000A06851F8202042F0010241F82020012095
:101BF00084F84900002070BDFEF7A2BF10B5401E5A
:101C0000B0F1807F01D3012010BD4FF0E02460616E
:101C10000F21601704F08CF90020A06107202061DB
:101C2000002010BD70477047F8B501680446086889
:101C3000CA684B6910F00F0F4FF0000559D003F040
:101C4000010602F49077374365D0C10705D0D1056E
:101C500003D5216C41F001012164410705D5D90765
:101C600003D0216C41F002012164810705D5D90719
:101C700003D0216C41F004012164010707D502F073
:101C80002001314303D0216C41F008012164216C13
:101C900000293AD0800604D5900602D5204604F0EB
:101CA0003EF820684069216CC0F38010090700D419
:101CB00060B3204604F00CF820684069400621D546
:101CC0002068143050E8001F21F0400140E8001265
:101CD000002AF5D1A06BA8B16C490165A06BFEF795
:101CE0007EFD002811D0A06B016D01B0BDE8F04071
:101CF000084783060FD593060DD52046BDE8F8406A
:101D000004F00DB82046FFF78EFFF8BD2046FFF720
:101D10008AFF2564F8BD266B2023012E79D1C606E3
:101D200077D5D60675D5086848680090486940069A
:101D300040D5A16B086840680004000CEAD0A28D71
:101D40008242E7D9E085C869B0F5807F2DD0206850
:101D50000C3050E8001F21F4807140E80012002A86
:101D6000F5D12068143050E8001F21F0010140E84F
:101D70000012002AF5D12068143050E8001F21F02D
:101D8000400140E80012002AF5D184F83E30256376
:101D900020680C3050E8001F21F0100140E80012CC
:101DA000002AF5D1A06BFEF7D1FCA08DE18D401A81
:101DB00081B229E0A08DE18D401A81B2E08D00282A
:101DC000A8D00029A6D020680C3050E8002F22F4BB
:101DD000907240E80026002EF5D12068143050E8BB
:101DE000002F22F0010240E80026002EF5D184F8F1
:101DF0003E30256320680C3050E8002F22F010029E
:101E000040E80023002BF5D12046FFF70BFFF8BD7B
:101E1000FFE705062BD5150629D594F83D002128A6
:101E2000F5D1A068B0F5805F01D12069B0B1206A1A
:101E3000411C2162216800784860E08C401E00044B
:101E4000000CE084E3D12068C16821F08001C1600A
:101E50002068C16841F04001C160D8E7206A00886D
:101E6000C0F308004860206A801C2062E5E7400655
:101E7000CDD55006CBD5CA68204622F04002CA60B4
:101E800084F83D3000F09BF8C1E70000C15C000819
:101E900070B5040004D094F83D00002510B106E0B0
:101EA000012070BD84F83C50204600F023F8242027
:101EB00084F83D002068C16821F40051C1602046CB
:101EC00003F08EFF2068016921F4904101612068D0
:101ED000416921F02A0141612068C16841F4005143
:101EE000C1602564202084F83D0084F83E00002075
:101EF00070BD0000F0B587B0044614216846FEF7B7
:101F000097F92A4F2368002229490224032507262E
:101F10002848BB4221D1264B14331F6847F01007D5
:101F20001F601B6803F0100305930B6843F0010367
:101F30000B60096802AB01F0010105916902CDE96E
:101F4000001483E864006946FEF74EFE0222114643
:101F50002520FEF7B7FF252023E0174FBB4222D1F3
:101F6000134B10331F6847F400371F601B6803F4DE
:101F7000003305930B6843F001030B60096802AB63
:101F800001F0010105910C21CDE9001483E8640002
:101F90006946FEF729FE022211462620FEF792FF2F
:101FA0002620FEF781FF07B0F0BD000000100140C1
:101FB0003038024000000240004400407047704743
:101FC000FEE700002DE9F04F85B00024142168469B
:101FD000FEF72EF90F2000904FF001090026CDE901
:101FE0000196DFF8D8806946454640460396FEF7DD
:101FF000FBFD4FF0F00ACDE900A64FF0020B694659
:102000002846CDF808B0FEF7EFFD01220F21284643
:10201000FEF7E2FE294D10352868C0B20F2849D0DE
:102020000A20FEF763FD2868C0B20F2842D0286856
:10203000C0B21F2806D02F2806D04F2806D08F28E0
:1020400007D105E0012404E0022402E0032400E0BB
:102050000424CDF800A0CDE90196694640460396D8
:10206000FEF7C2FD0F208DE8410869464046FEF7A5
:10207000BBFD0122F0214046FEF7AEFE2868C0B24B
:10208000F12811D0F22804D0F42804D0F8280BD17C
:1020900003E0241D08E0083406E00C3404E00A20C4
:1020A000FEF724FD7F1CFFB2322F03D22868C0B296
:1020B000F028F4D105B02046BDE8F08F00140240AE
:1020C00070B50B490646002408884D8821464543D3
:1020D000204602F09DFC02F0DBFDB0B24FF0D8418B
:1020E00003E000BFA1F88000641CAC42FAD370BDCD
:1020F000680000202DE9F04F2B492C260A468871F4
:1021000092884FF4305A4FF4285B4FF4487541F6EB
:10211000631E2B274FF02A0C4FF0F00845F21059A0
:102120004FF4A0744FF4F073B8B10C80A1F80280A2
:102130004A4532D1A1F808A0A1F80AB03802888136
:102140000D804B80A2F5A640103801D10B804C8049
:10215000BDE8F04F002002F09BBBA1F800804C804E
:102160004A4507D1A1F808A0A1F80AB04FF42C50B5
:10217000888105E072450E8105D14F81A1F80CC020
:102180000B804D8002E0A1F80AC08F81A2F5A64025
:102190001038DDD10C804B80DAE70E81A1F80AC03F
:1021A00072458F81CCD0CDE7680000202DE9F04149
:1021B0009046314A0D460446060A918810462F0A79
:1021C0004089A1F5AA43103B0FD0A1F5C853633B4A
:1021D00024D002F050FD304602F041FDE0B202F0A2
:1021E0003EFD908902F047FD36E002F044FD3046A6
:1021F00002F035FD5089401C80B202F03CFDE0B297
:1022000002F02DFD908902F036FD384602F027FDE0
:102210009089401C80B202F02EFD20E0917919B91E
:102220001188091B491E8CB202F025FD260A304692
:1022300002F015FDE0B202F012FD304602F00FFD93
:10224000E0B202F00CFD908902F015FD384602F074
:1022500006FDE8B202F003FD384602F000FDE8B2E8
:1022600002F0FDFC4FF0D840118920F87E1FA0F845
:102270000280BDE8F0810000680000202DE9F04FE9
:10228000FE4895B00024016841F002010160006839
:102290004FF4004B00F0020007900120CDE910B090
:1022A00012900320139010A9F548FEF79DFCF54805
:1022B0004FF020416A460160F34941600621C0E9C0
:1022C00002141021C0E9044184610902C461C0E91B
:1022D00009418900C0E90B4189014463C0E90E410D
:1022E0000F20CDE909043C200B900F940920CDE983
:1022F000000408200290039409A90694E148FFF71E
:102300004DFC3220FEF7F2FBD32002F0B4FC02F0C9
:102310008DFADC4C5034A08002F088FA2146888087
:1023200002F084FA4FF6FF7A21460AEA00208880FC
:1023300002F07CFA214649F24137898845F210388B
:102340000843214645F21056888041F6631947F24A
:102350008975B84279D0042002F08DFC02F066FA4B
:10236000A08002F063FAA08002F060FA0AEA00207E
:10237000A08002F05BFAA1880843A0F50541A08087
:1023800052394AD0A84260D0D42002F074FC02F046
:102390004DFAA08002F04AFAA08002F047FA0AEA59
:1023A0000020A08002F042FAA1880843A0804045A6
:1023B0004BD055214FF4704002F074FCAA214FF22B
:1023C000010002F06FFC52214FF2020002F06AFCA1
:1023D00008214FF2030002F065FC01214FF20400D6
:1023E00002F060FC4FF4454002F045FC02F01EFA9A
:1023F0000AEA0020A0804CF2015002F03CFC02F0FE
:1024000015FAA1880843A0800520FEF76FFBA0887D
:10241000584504D1A68001F091B9A5803CE1B042B5
:1024200013D0A12002F027FC02F000FAA08002F0F5
:10243000FDF90AEA0020A08002F0F8F9A18808431B
:10244000A0F5AE41A08061397ED0A088B8427CD191
:10245000CF2002F010FC002002F001FCC12002F0AD
:10246000FEFB302002F0FBFBED2002F004FC6420B8
:1024700002F0F5FB032002F0F2FB122002F0EFFB6A
:10248000812002F0ECFBE82002F0F5FB852002F051
:10249000E6FB102002F0E3FB7A2002F0E0FBCB2009
:1024A00002F0E9FB392002F0DAFB2C2002F0D7FB26
:1024B000002002F0D4FB342002F0D1FB022002F015
:1024C000CEFBF72002F0D7FB202002F0C8FBEA2069
:1024D00002F0D1FB002002F0C2FB002002F0BFFBA3
:1024E000C02002F0C8FB1B2002F0B9FBC12002F0A3
:1024F000C2FB012002F0B3FBC52002F0BCFB302080
:1025000002F0ADFB302002F0AAFBC72002F0B3FBC3
:10251000B72002F0A4FB362002F0ADFB482002F009
:102520009EFB3A2002F0A7FB552002F098FBB12059
:1025300002F0A1FB002002F092FB1A2002F08FFBB8
:10254000B62002F098FB01E0A0E0A3E00A2002F030
:1025500086FBA22002F083FBF22002F08CFB00201D
:1025600002F07DFB262002F086FB012002F077FBC3
:10257000E02002F080FB0F2002F071FB2A2002F025
:102580006EFB282002F06BFB082002F068FB0E2097
:1025900002F065FB082002F062FB542002F05FFBB2
:1025A000A92002F05CFB432002F059FB0A2002F054
:1025B00056FB0F2002F053FB002002F050FB0020DE
:1025C00002F04DFB002002F04AFB002002F047FB26
:1025D000E12002F050FB002002F041FB152002F048
:1025E0003EFB172002F03BFB072002F038FB1120D6
:1025F00002F035FB062002F032FB2B2002F02FFB0D
:10260000562002F02CFB3C2002F029FB052002F0B2
:1026100026FB102002F023FB0F2002F020FB3F20BE
:1026200002F01DFB3F2002F01AFB0F2002F017FB07
:102630002B2002F020FB002002F011FB002002F012
:102640000EFB012002F00BFB3F2002F008FB2A20CA
:1026500002F011FB002002F002FB002002F0FFFA62
:10266000002002F0FCFAEF2002F0F9FA112002F04B
:1026700002FB7820FEF73AFADFE000003038024033
:102680000004024018000020040100A0A4F80490F7
:1026900001F0D9BFA8427CD1112002F0ECFA7820D9
:1026A000FEF724FA362002F0E6FA002002F0D7FA0C
:1026B0003A2002F0E0FA052002F0D1FAB22002F04E
:1026C000DAFA0C2002F0CBFA0C2002F0C8FA002053
:1026D00002F0C5FA332002F0C2FA332002F0BFFA4A
:1026E000B72002F0C8FA352002F0B9FABB2002F098
:1026F000C2FA322002F0B3FAC02002F0BCFA0C2079
:1027000002F0ADFAC22002F0B6FA012002F0A7FAF8
:10271000C32002F0B0FA102002F0A1FAC42002F0A7
:10272000AAFA202002F09BFAC62002F0A4FA0F2099
:1027300002F095FAD02002F09EFAA42002F08FFA5F
:10274000A12002F08CFAE02002F095FAD02002F0ED
:1027500086FA002002F083FA022002F080FA0720B5
:1027600002F07DFA0A2002F07AFA282002F077FAC5
:10277000322002F074FA442002F071FA422002F092
:102780006EFA062002F06BFA0E2002F068FA1220B0
:1027900000E055E002F063FA142002F060FA17201E
:1027A00002F05DFAE12002F066FAD02002F057FA5A
:1027B000002002F054FA022002F051FA072002F041
:1027C0004EFA0A2002F04BFA282002F048FA312093
:1027D00002F045FA542002F042FA472002F03FFA94
:1027E0000E2002F03CFA1C2002F039FA172002F009
:1027F00036FA1B2002F033FA1E2002F030FA2A20AB
:1028000002F039FA002002F02AFA002002F027FA3A
:10281000002002F024FAEF2002F021FA2B2002F02F
:102820002AFA002002F01BFA002002F018FA012018
:1028300002F015FA3F2002F012FA292001F0FEBE44
:1028400040457CD1ED2002F016FA012002F007FA93
:10285000FE2002F004FAEE2002F00DFADE2002F073
:10286000FEF9212002F0FBF9F12002F004FA012028
:1028700002F0F5F9DF2002F0FEF9102002F0EFF986
:10288000C42002F0F8F98F2002F0E9F9C62002F026
:10289000F2F9002002F0E3F9E22002F0E0F9E22090
:1028A00002F0DDF9E22002F0DAF9BF2002F0E3F9EC
:1028B000AA2002F0D4F9B02002F0DDF90D2002F0D8
:1028C000CEF9002002F0CBF90D2002F0C8F900206B
:1028D00002F0C5F9112002F0C2F9002002F0BFF9A0
:1028E000192002F0BCF9002002F0B9F9212002F011
:1028F000B6F9002002F0B3F92D2002F0B0F9002063
:1029000002F0ADF93D2002F0AAF9002002F0A7F98B
:102910005D2002F0A4F9002002F0A1F95D2002F090
:102920009EF9002002F09BF9B12002F0A4F980206A
:1029300002F095F9002002F092F98B2000E0FCE310
:1029400002F08DF9002002F08AF9962002F087F952
:10295000002002F084F9B22002F08DF9002002F08C
:102960007EF9002002F07BF9022002F078F90020C5
:1029700002F075F9032002F072F9002002F06FF9FD
:10298000B32002F078F9002002F069F9002002F08B
:1029900066F9002002F063F9002002F060F90020DF
:1029A00002F05DF9002002F05AF9002002F057F918
:1029B000002002F054F9002002F051F9002002F04A
:1029C0004EF9002002F04BF9002002F048F90020F7
:1029D00002F045F9002002F042F9002002F03FF930
:1029E000002002F03CF9002002F039F9002002F04A
:1029F00036F9002002F033F9002002F030F900200F
:102A000002F02DF9002002F02AF9002002F027F947
:102A1000002002F024F9B42002F02DF98B2002F0FE
:102A20001EF9002002F01BF9962002F018F9002090
:102A300002F015F9A12002F012F9002002F00FF9BE
:102A4000B52002F018F9022002F009F9002002F086
:102A500006F9032002F003F9002002F000F9042037
:102A600002F0FDF8002002F0FAF8B62002F003F9B7
:102A7000002002F0F4F8002002F0F1F8B72002F094
:102A8000FAF8002002F0EBF8002002F0E8F83F200E
:102A900002F0E5F8002002F0E2F85E2002F0DFF834
:102AA000002002F0DCF8642002F0D9F8002002F0E7
:102AB000D6F88C2002F0D3F8002002F0D0F8AC2039
:102AC00002F0CDF8002002F0CAF8DC2002F0C7F8CE
:102AD000002002F0C4F8702002F0C1F8002002F0DB
:102AE000BEF8902002F0BBF8002002F0B8F8EB200E
:102AF00002F0B5F8002002F0B2F8DC2002F0AFF8E6
:102B0000002002F0ACF8B82002F0B5F8002002F086
:102B1000A6F8002002F0A3F8002002F0A0F80020A0
:102B200002F09DF8002002F09AF8002002F097F8D9
:102B3000002002F094F8002002F091F8BA2002F090
:102B40009AF8242002F08BF8002002F088F8002088
:102B500002F085F8002002F082F8C12002F08BF824
:102B6000202002F07CF8002002F079F8542002F0D6
:102B700076F8002002F073F8FF2002F070F80020D1
:102B800002F06DF8C22002F076F80A2002F067F831
:102B9000002002F064F8042002F061F8002002F046
:102BA0005EF8C32002F067F83C2002F058F80020DD
:102BB00002F055F83A2002F052F8002002F04FF8E7
:102BC000392002F04CF8002002F049F8372002F0DA
:102BD00046F8002002F043F83C2002F040F80020C4
:102BE00002F03DF8362002F03AF8002002F037F803
:102BF000322002F034F8002002F031F82F2002F0E9
:102C00002EF8002002F02BF82C2002F028F80020EB
:102C100002F025F8292002F022F8002002F01FF827
:102C2000262002F01CF8002002F019F8242002F0FF
:102C300016F8002002F013F8242002F010F800200B
:102C400002F00DF8232002F00AF8002002F007F845
:102C50003C2002F004F8002002F001F8362001F0D8
:102C6000FEFF002001F0FBFF322001F0F8FF002002
:102C700001F0F5FF2F2001F0F2FF002001F0EFFF3F
:102C80002C2001F0ECFF002001F0E9FF292001F0E9
:102C9000E6FF002001F0E3FF262001F0E0FF002026
:102CA00001F0DDFF242001F0DAFF002001F0D7FF62
:102CB000242001F0D4FF002001F0D1FF232001F0F7
:102CC000CEFF002001F0CBFFC42001F0D4FF622032
:102CD00001F0C5FF002001F0C2FF052001F0BFFF99
:102CE000002001F0BCFF842001F0B9FF002001F0BA
:102CF000B6FFF02001F0B3FF002001F0B0FF182074
:102D000001F0ADFF002001F0AAFFA42001F0A7FF11
:102D1000002001F0A4FF182001F0A1FF002001F025
:102D20009EFF502001F09BFF002001F098FF0C2037
:102D300001F095FF002001F092FF172001F08FFFB6
:102D4000002001F08CFF952001F089FF002001F0A8
:102D500086FFF32001F083FF002001F080FFE620D2
:102D600001F07DFF002001F07AFFC52001F083FF14
:102D7000322001F074FF002001F071FF442001F0C7
:102D80006EFF002001F06BFF652001F068FF00205E
:102D900001F065FF762001F062FF002001F05FFF87
:102DA000882001F05CFF002001F059FFC62001F0EF
:102DB00062FF202001F053FF002001F050FF172098
:102DC00001F04DFF002001F04AFF012001F047FF14
:102DD000002001F044FFC72001F04DFF002001F06A
:102DE0003EFF002001F03BFF002001F038FF0020F3
:102DF00001F035FFC82001F03EFF002001F02FFF59
:102E0000002001F02CFF002001F029FF002001F03C
:102E100026FFC92001F02FFF002001F020FF002035
:102E200001F01DFF002001F01AFF002001F017FF44
:102E3000002001F014FF002001F011FF002001F03C
:102E40000EFF002001F00BFF002001F008FF002022
:102E500001F005FF002001F002FF002001F0FFFE5D
:102E6000002001F0FCFE002001F0F9FE002001F03E
:102E7000F6FE002001F0F3FEE02001F0FCFE16203B
:102E800001F0EDFE002001F0EAFE1C2001F0E7FE5B
:102E9000002001F0E4FE212001F0E1FE002001F01D
:102EA000DEFE362001F0DBFE002001F0D8FE4620D9
:102EB00001F0D5FE002001F0D2FE522001F0CFFE3D
:102EC000002001F0CCFE642001F0C9FE002001F0DA
:102ED000C6FE7A2001F0C3FE002001F0C0FE8B2068
:102EE00001F0BDFE002001F0BAFE992001F0B7FE0E
:102EF000002001F0B4FEA82001F0B1FE002001F096
:102F0000AEFEB92001F0ABFE002001F0A8FEC42007
:102F100001F0A5FE002001F0A2FECA2001F09FFEF4
:102F2000002001F09CFED22001F099FE002001F06B
:102F300096FED92001F093FE002001F090FEE020E3
:102F400001F08DFE002001F08AFEF32001F087FEE3
:102F5000002001F084FEE12001F08DFE162001F03A
:102F60007EFE002001F07BFE1C2001F078FE002098
:102F700001F075FE222001F072FE002001F06FFECC
:102F8000362001F06CFE002001F069FE452001F0C2
:102F900066FE002001F063FE522001F060FE00207A
:102FA00001F05DFE642001F05AFE002001F057FEA2
:102FB0007A2001F054FE002001F051FE8B2001F038
:102FC0004EFE002001F04BFE992001F048FE00204B
:102FD00001F045FEA82001F042FE002001F03FFE76
:102FE000B92001F03CFE002001F039FEC42001F0C0
:102FF00036FE002001F033FECA2001F030FE002032
:1030000001F02DFED22001F02AFE002001F027FE63
:10301000D82001F024FE002001F021FEE02001F084
:103020001EFE002001F01BFEF32001F018FE002020
:1030300001F015FEE22001F01EFE052001F00FFE5A
:10304000002001F00CFE0B2001F009FE002001F031
:1030500006FE1B2001F003FE002001F000FE3420DC
:1030600001F0FDFD002001F0FAFD442001F0F7FD24
:10307000002001F0F4FD4F2001F0F1FD002001F0EF
:10308000EEFD612001F0EBFD002001F0E8FD79206C
:1030900001F0E5FD002001F0E2FD882001F0DFFDF8
:1030A000002001F0DCFD972001F0D9FD002001F0A7
:1030B000D6FDA62001F0D3FD002001F0D0FDB72001
:1030C00001F0CDFD002001F0CAFDC22001F0C7FDD6
:1030D000002001F0C4FDC72001F0C1FD002001F077
:1030E000BEFDD12001F0BBFD002001F0B8FDD620CF
:1030F00001F0B5FD002001F0B2FDDD2001F0AFFDD3
:10310000002001F0ACFDF32001F0A9FD002001F04A
:10311000A6FDE32001F0AFFD052001F0A0FD002099
:1031200001F09DFD0A2001F09AFD002001F097FDBD
:103130001C2001F094FD002000E0FDE201F08FFD75
:10314000332001F08CFD002001F089FD442001F0C6
:1031500086FD002001F083FD502001F080FD00205D
:1031600001F07DFD622001F07AFD002001F077FD85
:10317000782001F074FD002001F071FD882001F03D
:103180006EFD002001F06BFD972001F068FD00202E
:1031900001F065FDA62001F062FD002001F05FFD59
:1031A000B72001F05CFD002001F059FDC22001F0C4
:1031B00056FD002001F053FDC72001F050FD002016
:1031C00001F04DFDD12001F04AFD002001F047FD46
:1031D000D52001F044FD002001F041FDDD2001F08B
:1031E0003EFD002001F03BFDF32001F038FD002002
:1031F00001F035FDE42001F03EFD012001F02FFD3E
:10320000002001F02CFD012001F029FD002001F03B
:1032100026FD022001F023FD002001F020FD2A20E0
:1032200001F01DFD002001F01AFD3C2001F017FD0A
:10323000002001F014FD4B2001F011FD002001F0F1
:103240000EFD5D2001F00BFD002001F008FD742053
:1032500001F005FD002001F002FD842001F0FFFCDB
:10326000002001F0FCFC932001F0F9FC002001F0AB
:10327000F6FCA22001F0F3FC002001F0F0FCB320EA
:1032800001F0EDFC002001F0EAFCBE2001F0E7FCBB
:10329000002001F0E4FCC42001F0E1FC002001F07A
:1032A000DEFCCD2001F0DBFC002001F0D8FCD320B7
:1032B00001F0D5FC002001F0D2FCDD2001F0CFFCB4
:1032C000002001F0CCFCF32001F0C9FC002001F04B
:1032D000C6FCE52001F0CFFC002001F0C0FC00207E
:1032E00001F0BDFC002001F0BAFC002001F0B7FCA9
:1032F000022001F0B4FC002001F0B1FC292001F013
:10330000AEFC002001F0ABFC3C2001F0A8FC00204A
:1033100001F0A5FC4B2001F0A2FC002001F09FFC75
:103320005D2001F09CFC002001F099FC742001F06C
:1033300096FC002001F093FC842001F090FC00201A
:1033400001F08DFC932001F08AFC002001F087FC45
:10335000A22001F084FC002001F081FCB32001F0E8
:103360007EFC002001F07BFCBE2001F078FC0020F8
:1033700001F075FCC42001F072FC002001F06FFC2C
:10338000CD2001F06CFC002001F069FCD32001F09D
:1033900066FC002001F063FCDC2001F060FC0020F2
:1033A00001F05DFCF32001F05AFC002001F057FC15
:1033B000E62001F060FC112001F051FC002001F03A
:1033C0004EFC342001F04BFC002001F048FC56205C
:1033D00001F045FC002001F042FC762001F03FFCAA
:1033E000002001F03CFC772001F039FC002001F0C6
:1033F00036FC662001F033FC002001F030FC882010
:1034000001F02DFC002001F02AFC992001F027FC9E
:10341000002001F024FCBB2001F021FC002001F081
:103420001EFC992001F01BFC002001F018FC662016
:1034300001F015FC002001F012FC552001F00FFCFA
:10344000002001F00CFC552001F009FC002001F0E7
:1034500006FC452001F003FC002001F000FC4320A5
:1034600001F0FDFB002001F0FAFB442001F0F7FB26
:10347000002001F0F4FBE72001F0FDFB322001F019
:10348000EEFB002001F0EBFB552001F0E8FB0020F3
:1034900001F0E5FB762001F0E2FB002001F0DFFB0C
:1034A000662001F0DCFB002001F0D9FB672001F071
:1034B000D6FB002001F0D3FB672001F0D0FB0020F9
:1034C00001F0CDFB872001F0CAFB002001F0C7FB13
:1034D000992001F0C4FB002001F0C1FBBB2001F0EA
:1034E000BEFB002001F0BBFB992001F0B8FB0020DF
:1034F00001F0B5FB772001F0B2FB002001F0AFFB3B
:10350000442001F0ACFB002001F0A9FB562001F0A3
:10351000A6FB002001F0A3FB232001F0A0FB00206C
:1035200001F09DFB332001F09AFB002001F097FB96
:10353000452001F094FB002001F091FBE82001F010
:103540009AFB002001F08BFB002001F088FB992002
:1035500001F085FB002001F082FB872001F07FFB5A
:10356000002001F07CFB882001F079FB002001F0B5
:1035700076FB772001F073FB002001F070FB6620E2
:1035800001F06DFB002001F06AFB882001F067FB71
:10359000002001F064FBAA2001F061FB002001F093
:1035A0005EFBBB2001F05BFB002001F058FB992083
:1035B00001F055FB002001F052FB662001F04FFBAB
:1035C000002001F04CFB552001F049FB002001F0E8
:1035D00046FB552001F043FB002001F040FB442056
:1035E00001F03DFB002001F03AFB442001F037FBE5
:1035F000002001F034FB552001F031FB002001F0E8
:103600002EFBE92001F037FBAA2001F028FB002067
:1036100001F025FB002001F022FB002001F01FFB40
:10362000002001F028FBAA2001F019FBCF2001F0B7
:1036300022FB002001F013FB002001F010FB002012
:1036400001F00DFB002001F00AFB002001F007FB58
:10365000002001F004FB002001F001FB002001F03C
:10366000FEFA002001F0FBFA002001F0F8FA002039
:1036700001F0F5FA002001F0F2FA002001F0EFFA73
:10368000002001F0ECFA002001F0E9FA002001F03E
:10369000E6FA002001F0E3FAF02001F0ECFA002055
:1036A00001F0DDFA502001F0DAFA002001F0D7FA3B
:1036B000002001F0D4FA002001F0D1FAF32001F04B
:1036C000DAFA002001F0CBFAF92001F0D4FA062052
:1036D00001F0C5FA102001F0C2FA292001F0BFFA6A
:1036E000002001F0BCFA3A2001F0C5FA552001F0A3
:1036F000B6FA112001F0BFFA6420FDF7F7F929208E
:1037000001F0B9FA352001F0B6FA002001F0A7FA6D
:10371000512001F0B0FAFF2001F0A1FA532001F08E
:10372000AAFA2C2001F09BFA552001F0A4FA82207D
:1037300001F095FA2C20FDE3B0427CD155214FF4E5
:10374000704001F0AFFAAA214FF2010001F0AAFA8D
:1037500052214FF2020001F0A5FA08214FF20300B6
:1037600001F0A0FA4FF204030121184601F09AFA81
:103770000D214FF4304001F095FA0D214BF201007C
:1037800001F090FA0D214BF2020001F08BFA342186
:103790004FF4364001F086FA34214BF2016001F01B
:1037A00081FA34214BF2026001F07CFA0D214FF4D2
:1037B000314001F077FA0D214BF2011001F072FA5D
:1037C0000D214BF2021001F06DFA34214FF4374015
:1037D00001F068FA34214BF2017001F063FA3421F0
:1037E0004BF2027001F05EFA00214FF4324001F01A
:1037F00059FA00214BF2012001F054FA00214BF25A
:10380000022001F04FFA24214FF4384001F04AFA27
:1038100024214BF6010001F045FA24214BF6020069
:1038200001F040FA01214FF43F4001F03BFA0F2133
:103830004FF4334000E0FCE301F034FA0F214BF287
:10384000013001F02FFA0F214BF2023001F02AFA79
:1038500034214FF4394001F025FA34214BF60110A0
:1038600001F020FA34214BF6021001F01BFA082176
:103870004FF4354001F016FA08214BF2015001F0E7
:1038800011FA08214BF2025001F00CFA03214FF417
:10389000424001F007FA24214FF43A4001F002FAC5
:1038A00024214BF6012001F0FDF924214BF60220E2
:1038B00001F0F8F900214FF43C4001F0F3F97821D0
:1038C0004BF6014001F0EEF900214BF6024001F009
:1038D000E9F900214FF43D4001F0E4F978214BF67D
:1038E000015001F0DFF900214BF6025001F0DAF946
:1038F00000214FF43E4001F0D5F964214BF6016000
:1039000001F0D0F900214FF4514001F0CBF93321FF
:103910004DF2011001F0C6F900214DF2021001F044
:10392000C1F934214DF2031001F0BCF900214DF230
:10393000041001F0B7F93A214DF2051001F0B2F987
:1039400000214DF2061001F0ADF94A214DF20710A9
:1039500001F0A8F900214DF2081001F0A3F95C2153
:103960004DF2091001F09EF900214DF20A1001F00C
:1039700099F981214DF20B1001F094F900214DF2DB
:103980000C1001F08FF9A6214DF20D1001F08AF90B
:1039900000214DF20E1001F085F9E5214DF20F10D6
:1039A00001F080F901214DF2101001F07BF9132193
:1039B0004DF2111001F076F901214DF2121001F0D3
:1039C00071F954214DF2131001F06CF901214DF2FF
:1039D000141001F067F982214DF2151001F062F91F
:1039E00001214DF2161001F05DF9CA214DF21710B8
:1039F00001F058F902214DF2181001F053F900219D
:103A00004DF2191001F04EF902214DF21A1001F099
:103A100049F901214DF21B1001F044F902214DF248
:103A20001C1001F03FF934214DF21D1001F03AF95C
:103A300002214DF21E1001F035F967214DF21F10E1
:103A400001F030F902214DF2201001F02BF9842110
:103A50004DF2211001F026F902214DF2221001F061
:103A600021F9A4214DF2231001F01CF902214DF29D
:103A7000241001F017F9B7214DF2251001F012F9C9
:103A800002214DF2261001F00DF9CF214DF2271041
:103A900001F008F902214DF2281001F003F9DE21AE
:103AA0004DF2291001F0FEF802214DF22A1001F02A
:103AB000F9F8F2214DF22B1001F0F4F802214DF249
:103AC0002C1001F0EFF8FE214DF22D1001F0EAF874
:103AD00003214DF22E1001F0E5F810214DF22F10C8
:103AE00001F0E0F803214DF2301001F0DBF8332152
:103AF0004DF2311001F0D6F803214DF2321001F0F1
:103B0000D1F86D214DF2331001F0CCF800214FF4C3
:103B1000524001F0C7F833214DF2012001F0C2F804
:103B200000214DF2022001F0BDF834214DF20320B6
:103B300001F0B8F800214DF2042001F0B3F83A2169
:103B40004DF2052001F0AEF800214DF2062001F003
:103B5000A9F84A214DF2072001F0A4F800214DF206
:103B6000082001F09FF85C214DF2092001F09AF83D
:103B700000214DF20A2001F095F881214DF20B2031
:103B800001F090F800214DF20C2001F08BF8A621F5
:103B90004DF20D2001F086F800214DF20E2001F0CB
:103BA00081F8E5214DF20F2001F07CF801214DF262
:103BB000102001F077F813214DF2112001F072F876
:103BC00001214DF2122001F06DF854214DF2132025
:103BD00001F068F801214DF2142001F063F8822110
:103BE0004DF2152001F05EF801214DF2162001F092
:103BF00059F8CA214DF2172001F054F802214DF274
:103C0000182001F04FF800214DF2192001F04AF878
:103C100002214DF21A2001F045F801214DF21B203E
:103C200001F040F802214DF21C2001F03BF8342154
:103C30004DF21D2001F036F802214DF21E2001F058
:103C400031F867214DF21F2001F02CF802214DF2CE
:103C5000202001F027F884214DF2212001F022F8E4
:103C600002214DF2222001F01DF8A4214DF2232063
:103C700001F018F802214DF2242001F013F8B721C9
:103C80004DF2252001F00EF802214DF2262001F020
:103C900009F8CF214DF2272001F004F802214DF25E
:103CA000282000F0FFFFDE214DF2292000F0FAFF6E
:103CB00002214DF22A2000F0F5FFF2214DF22B20D7
:103CC00000F0F0FF02214DF22C2000F0EBFFFE216E
:103CD0004DF22D2000F0E6FF03214DF22E2000F0E2
:103CE000E1FF10214DF22F2000F0DCFF03214DF207
:103CF000302000F0D7FF33214DF2312000F0D2FF09
:103D000003214DF2322000F0CDFF6D214DF2332022
:103D100000F0C8FF00214FF4534000F0C3FF3321EF
:103D20004DF2013000F0BEFF00214DF2023000F0F4
:103D3000B9FF34214DF2033000F0B4FF00214DF201
:103D4000043000F0AFFF3A214DF2053000F0AAFF39
:103D500000214DF2063000F0A5FF4A214DF2073058
:103D600000F0A0FF00214DF2083000F09BFF5C2125
:103D70004DF2093000F096FF00214DF20A3000F0BC
:103D800091FF81214DF20B3000F08CFF00214DF2AC
:103D90000C3000F087FFA6214DF20D3000F082FFBD
:103DA00000214DF20E3000F07DFFE5214DF20F3085
:103DB00000F078FF01214DF2103000F073FF132165
:103DC0004DF2113000F06EFF01214DF2123000F083
:103DD00069FF54214DF2133000F064FF01214DF2D0
:103DE000143000F05FFF82214DF2153000F05AFFD1
:103DF00001214DF2163000F055FFCA214DF2173067
:103E000000F050FF02214DF2183000F04BFF00216E
:103E10004DF2193000F046FF02214DF21A3000F049
:103E200041FF01214DF21B3000F03CFF02214DF219
:103E30001C3000F037FF34214DF21D3000F032FF0E
:103E400002214DF21E3000F02DFF67214DF21F3090
:103E500000F028FF02214DF2203000F023FF8421E2
:103E60004DF2213000F01EFF02214DF2223000F011
:103E700019FFA4214DF2233000F014FF02214DF26E
:103E8000243000F00FFFB7214DF2253000F00AFF7B
:103E900002214DF2263000F005FFCF214DF22730F0
:103EA00000F000FF02214DF2283000F0FBFEDE2181
:103EB0004DF2293000F0F6FE02214DF22A3000F0DA
:103EC000F1FEF2214DF22B3000F0ECFE02214DF21A
:103ED0002C3000F0E7FEFE214DF22D3000F0E2FE26
:103EE00003214DF22E3000F0DDFE10214DF22F3077
:103EF00000F0D8FE03214DF2303000F0D3FE332124
:103F00004DF2313000F0CEFE03214DF2323000F0A0
:103F1000C9FE6D214DF2333000F0C4FE00214FF494
:103F2000544000F0BFFE33214DF2014000F0BAFED4
:103F3000002100E082E34DF2024000F0B3FE3421A4
:103F40004DF2034000F0AEFE00214DF2044000F0BF
:103F5000A9FE3A214DF2054000F0A4FE00214DF2E9
:103F6000064000F09FFE4A214DF2074000F09AFE05
:103F700000214DF2084000F095FE5C214DF2094011
:103F800000F090FE00214DF20A4000F08BFE8121EE
:103F90004DF20B4000F086FE00214DF20C4000F087
:103FA00081FEA6214DF20D4000F07CFE00214DF275
:103FB0000E4000F077FEE5214DF20F4000F072FE5A
:103FC00001214DF2104000F06DFE13214DF2114021
:103FD00000F068FE01214DF2124000F063FE542112
:103FE0004DF2134000F05EFE01214DF2144000F04E
:103FF00059FE82214DF2154000F054FE01214DF290
:10400000164000F04FFECA214DF2174000F04AFE64
:1040100002214DF2184000F045FE00214DF21940FA
:1040200000F040FE02214DF21A4000F03BFE01215B
:1040300000E006E34DF21B4000F034FE02214DF299
:104040001C4000F02FFE34214DF21D4000F02AFEEE
:1040500002214DF21E4000F025FE67214DF21F4067
:1040600000F020FE02214DF2204000F01BFE8421D2
:104070004DF2214000F016FE02214DF2224000F0E8
:1040800011FEA4214DF2234000F00CFE02214DF25E
:10409000244000F007FEB7214DF2254000F002FE5B
:1040A00002214DF2264000F0FDFDCF214DF22740C8
:1040B00000F0F8FD02214DF2284000F0F3FDDE2172
:1040C0004DF2294000F0EEFD02214DF22A4000F0B1
:1040D000E9FDF2214DF22B4000F0E4FD02214DF20A
:1040E0002C4000F0DFFDFE214DF22D4000F0DAFD06
:1040F00003214DF22E4000F0D5FD10214DF22F404E
:1041000000F0D0FD03214DF2304000F0CBFD332113
:104110004DF2314000F0C6FD03214DF2324000F077
:10412000C1FD6D214DF2334000F0BCFD00214FF484
:10413000554000F0B7FD33214DF2015000F0B2FDC3
:1041400000214DF2025000F0ADFD34214DF203503C
:1041500000F0A8FD00214DF2045000F0A3FD3A212B
:104160004DF2055000F09EFD00214DF2065000F08A
:1041700099FD4A214DF2075000F094FD00214DF2C7
:10418000085000F08FFD5C214DF2095000F08AFDCF
:1041900000214DF20A5000F085FD81214DF20B50B7
:1041A00000F080FD00214DF20C5000F07BFDA621B7
:1041B0004DF20D5000F076FD00214DF20E5000F052
:1041C00071FDE5214DF20F5000F06CFD01214DF223
:1041D000105000F067FD13214DF2115000F062FD08
:1041E00001214DF2125000F05DFD54214DF21350AB
:1041F00000F058FD01214DF2145000F053FD8221D2
:104200004DF2155000F04EFD01214DF2165000F018
:1042100049FDCA214DF2175000F044FD02214DF234
:10422000185000F03FFD00214DF2195000F03AFD0A
:1042300002214DF21A5000F035FD01214DF21B50C4
:1042400000F030FD02214DF21C5000F02BFD342116
:104250004DF21D5000F026FD02214DF21E5000F0DF
:1042600021FD67214DF21F5000F01CFD02214DF28F
:10427000205000F017FD84214DF2215000F012FD76
:1042800002214DF2225000F00DFDA4214DF22350E9
:1042900000F008FD02214DF2245000F003FDB7218B
:1042A0004DF2255000F0FEFC02214DF2265000F0A8
:1042B000F9FCCF214DF2275000F0F4FC02214DF221
:1042C000285000F0EFFCDE214DF2295000F0EAFC0E
:1042D00002214DF22A5000F0E5FCF2214DF22B5064
:1042E00000F0E0FC02214DF22C5000F0DBFCFE213E
:1042F0004DF22D5000F0D6FC03214DF22E5000F06F
:10430000D1FC10214DF22F5000F0CCFC03214DF2D6
:10431000305000F0C7FC33214DF2315000F0C2FCA8
:1043200003214DF2325000F0BDFC6D214DF23350AF
:1043300000F0B8FC00214FF4564000F0B3FC3321EC
:104340004DF2016000F0AEFC00214DF2026000F081
:10435000A9FC34214DF2036000F0A4FC00214DF2D1
:10436000046000F09FFC3A214DF2056000F09AFCD9
:1043700000214DF2066000F095FC4A214DF20760E5
:1043800000F090FC00214DF2086000F08BFC5C21F5
:104390004DF2096000F086FC00214DF20A6000F049
:1043A00081FC81214DF20B6000F07CFC00214DF27C
:1043B0000C6000F077FCA6214DF20D6000F072FC5D
:1043C00000214DF20E6000F06DFCE5214DF20F6012
:1043D00000F068FC01214DF2106000F063FC132135
:1043E0004DF2116000F05EFC01214DF2126000F010
:1043F00059FC54214DF2136000F054FC01214DF2A0
:10440000146000F04FFC82214DF2156000F04AFC70
:1044100001214DF2166000F045FCCA214DF21760F3
:1044200000F040FC02214DF2186000F03BFC00213E
:104430004DF2196000F036FC02214DF21A6000F0D6
:1044400031FC01214DF21B6000F02CFC02214DF2E9
:104450001C6000F027FC34214DF21D6000F022FCAE
:1044600002214DF21E6000F01DFC67214DF21F601D
:1044700000F018FC02214DF2206000F013FC8421B2
:104480004DF2216000F00EFC02214DF2226000F09E
:1044900009FCA4214DF2236000F004FC02214DF23E
:1044A000246000F0FFFBB7214DF2256000F0FAFB1D
:1044B00002214DF2266000F0F5FBCF214DF227607E
:1044C00000F0F0FB02214DF2286000F0EBFBDE2152
:1044D0004DF2296000F0E6FB02214DF22A6000F067
:1044E000E1FBF2214DF22B6000F0DCFB02214DF2EA
:1044F0002C6000F0D7FBFE214DF22D6000F0D2FBC6
:1045000003214DF22E6000F0CDFB10214DF22F6003
:1045100000F0C8FB03214DF2306000F0C3FB3321F3
:104520004DF2316000F0BEFB03214DF2326000F02D
:10453000B9FB6D214DF2336000F0B4FB55214FF40F
:10454000704000F0AFFBAA214FF2010000F0AAFB7F
:1045500052214FF2020000F0A5FB08214FF20300A8
:1045600000F0A0FB0021184600F09CFBCC214FF48A
:10457000314000F097FB00214BF2011000F092FB5C
:1045800005214FF4364000F08DFB70214FF4374089
:1045900000F088FB70214BF2017000F083FB0121D9
:1045A0004FF4384000F07EFB03214BF6010000F091
:1045B00079FB03214BF6020000F074FB03214BF65C
:1045C000030000F06FFB02214FF43C4000F06AFB57
:1045D00000214BF6014000F065FB00214BF6024044
:1045E00000F060FBD0214FF4494000F05BFB02215A
:1045F0004CF6011000F056FB50214CF6021000F072
:1046000051FB50214CF6031000F04CFB50214CF6AE
:10461000041000F047FB00214FF4545000F042FB1F
:1046200055214FF4685000F03DFB4FF4885000F0E6
:1046300022FB7820FCF76CFA4FF4245000F01BFBAF
:10464000B9E04845FCD1E22000F015FB1D2000F048
:1046500006FB022000F003FB042000F000FB6420B6
:10466000FCF756FAE02000F006FB012000F0F7FA14
:104670000A20FCF73BFAE02000F0FDFA032000F0EE
:10468000EEFA0C20FCF732FA012000F0F4FA0A20CE
:10469000FCF72CFAE62000F0EEFA2F2000F0DFFA0B
:1046A000FF2000F0DCFAFF2000F0D9FAB02000F083
:1046B000E2FA202000F0D3FA002000F0D0FA032024
:1046C00000F0CDFA40F21F3000F0C9FA012000F0EE
:1046D000C6FA40F2DF1000F0C2FA002000F0BFFA84
:1046E000B42000F0C8FA042000F0B9FA40F21F40EC
:1046F00000F0B5FA002000F0B2FA2E2000F0AFFA78
:10470000002000F0ACFA002000F0A9FA002000F030
:10471000A6FA002000F0A3FAB62000F0ACFA0220BE
:1047200000F09DFA4FF4037000F099FA002000F0B9
:1047300096FA172000F093FA152000F090FA002066
:1047400000F08DFA002000F08AFAF02000F093FAD1
:10475000032000F084FA292000F08DFAD02000F028
:104760008AFA002000F07BFABE2000F084FA0520CF
:1047700000F075FAFE2000F072FA012000F06FFAE6
:10478000002000F06CFA002000F069FA002000F030
:1047900066FAB82000F06FFA032000F060FA0120FA
:1047A00000F05DFABA2000F066FA012000F057FA36
:1047B000642000F045F8A188B94207D0A94205D08D
:1047C000414503D0B14201D049451ED14FF02040B0
:1047D000D0F81C2122F00F02C0F81C21D0F81C21B7
:1047E00022F47062C0F81C21D0F81C2142F00302B0
:1047F000C0F81C21A942D0F81C1102D141F440712B
:1048000001E041F40071C0F81C110020FDF772FCBA
:10481000012259460448FCF7DFFA5046FDF750FCE8
:1048200015B0BDE8F08F00000004024008B54FF05D
:10483000D840B0F88000ADF80000BDF8000008BD19
:1048400010B50246BE2000F016FA052000F007FA67
:104850001046FBF778FD9FED0C1B53EC112BFBF77B
:1048600000FDFBF77DFD80B200F0F9F9012000F0BA
:10487000F6F9FF2000F0F3F9002000F0F0F9BDE8B0
:104880001040002000F0EBB966666666666604407C
:1048900070B55E4C00232146A279898841F66316E3
:1048A000012A01D01AB10CE0B14202D109E0B142B3
:1048B00007D1082805D2DFE800F0161812140C19E9
:1048C000100E082812D2DFE800F0110406080A0CC6
:1048D0000E1080230AE0402308E0C02306E02023D6
:1048E00004E0602302E0A02300E0E02345F210553D
:1048F000A94202D14FF4585000E03620A1F51342EE
:10490000413A03D0A1F5EE42893A01D143F00803C0
:10491000194600F0C7F9A188B1420AD0980620884C
:10492000628802D5904202D303E0904201D92280EE
:1049300060806089A94240D100F09DF9002000F01C
:104940008EF96089401C80B200F095F9002000F0DB
:1049500086F96089801C80B200F08DF92088401EA5
:10496000C0F30F2000F07BF96089C01C80B200F01A
:1049700082F92078401EC0B200F071F9A08900F0E1
:104980007AF9002000F06BF9A089401C80B200F099
:1049900072F9002000F063F9A089801C80B200F059
:1049A0006AF96088401EC0F30F2000F058F9A08912
:1049B000C01C80B200F05FF921E000F05CF900203B
:1049C00000F04DF9002000F04AF92088401EC0F3A5
:1049D0000F2000F044F92078401EC0B200F03FF9EB
:1049E000A08900F048F9002000F039F9002000F01B
:1049F00036F96088401EC0F30F2000F030F9A0782F
:104A0000BDE87040401EC0B200F029B96800002027
:104A1000F0B53B4A0D460446060A918810462F0A17
:104A20004089A1F5C853633B16D0A1F5AA43103BBA
:104A30004CD000F020F9304600F011F9E0B200F05F
:104A40000EF9908900F017F9384600F008F9E8B23D
:104A5000BDE8F04000F003B9917931B300F00BF9F3
:104A6000304600F0FCF8E0B200F0F9F81088401E83
:104A7000C0F30F2000F0F3F81078401E5FFA80F0CA
:104A800000F0EDF8908900F0F6F8384600F0E7F80D
:104A9000E8B200F0E4F85088401EC0F30F2000F0A8
:104AA000DEF89078401EC0B2D2E71188091B491E7B
:104AB0008CB200F0E0F8002000F0D1F8002000F007
:104AC000CEF8200A00F0CBF8E0B2D9E700F0D3F836
:104AD000304600F0C4F85089401C80B200F0CBF89A
:104AE000E0B200F0BCF8908900F0C5F8384600F05C
:104AF000B6F89089401C80B200F0BDF8A7E700002E
:104B0000680000202DE9FF4F1D460C468A465807D5
:104B100000D0012000EBD500690810FB01F0203A1D
:104B200000F0FF09D0B20026DFF8A4B002904BE0FD
:104B30000C2D11D0102D14D0182D17D0202D45D1AB
:104B40002449029801EBC0104FF00008875D380639
:104B500013D52148026814E00298204900EB400078
:104B600008E01F49029801EB0010EDE702981D498B
:104B700000EBC00001EB8000E6E70D9828B916486D
:104B8000426821460098FDF711FB7806070E641C69
:104B9000BBF80200A4B2A04218D9A4EB0A00A842B4
:104BA00009D100985446401C80B20090BBF8001018
:104BB00081420BD906E008F1010000F0FF08B8F1CE
:104BC000080FC4D3761CF6B24E45B1D3BDE8FF8FB3
:104BD00068000020F69700080000002036800008DA
:104BE000AA8400089A8A00080CB50A4600EB400027
:104BF000F22101EBC000C1B21020CDE90002182360
:104C0000D2220A2000F001F80CBD2DE9F84F04462D
:104C100000F0FF0910190D46DDE90AB61FFA80F809
:104C2000581987B24FF0010A12E0444503D305EB4F
:104C30000B004C4685B2BD420FD25B46294620464A
:104C4000CDF800A0FFF75EFF04EB5B0084B2761C9A
:104C50003278A2F120005E28E7D9BDE8F88F01B5CF
:104C6000BDF80000ADF80000BDF800004FF0D841DD
:104C7000A1F8800008BD01B5BDF80000ADF8000046
:104C8000BDF800004FF0D841A1F87E0008BD00003B
:104C900003484FF0D8410089A1F87E00704700001A
:104CA000680000204FF0D84222F87E0F51807047F4
:104CB000F0B50646ADF2044D00250122274802F06A
:104CC0009BF92749087060B126A10420FFF78CFFEB
:104CD0004FF48067214A3946684601F097FE6C46DA
:104CE0002EE024A1F1E7C5EBC502002002EB45123E
:104CF00001463244235C5354401C491CC9B280B263
:104D00000829F7D3401C80B2215C2C29FAD1401C21
:104D100080B2215C81B101211177801C81B2002019
:104D2000635C02EB000C491C401CC0B28CF81D30C7
:104D300089B20A28F4D301E0002010776D1CADB2CF
:104D4000064A3946684601F061FE0028CBD1034887
:104D500001F048FE0DF2044DF0BD0000E08B012093
:104D600084C001204F70656E2044617461204572DB
:104D7000726F72004F70656E2044617461205375CC
:104D8000636365737366756C6C790000F0B5ADF2A2
:104D9000044D002501221E491E4802F02DF91E492E
:104DA000087068B11DA10320FFF71EFF4FF4806754
:104DB000184A3946684601F029FE6C461B4E19E038
:104DC0001BA1F0E7002000E080B2215C00F10100AF
:104DD0002C29F9D181B205EB8502002006EB4202B5
:104DE000635C1354491C401CC0B289B20A28F7D333
:104DF0006D1CADB2074A3946684601F007FE00282F
:104E0000E0D1044801F0EEFD0DF2044DF0BD0000CC
:104E100000C00120E08B012084C001204F70656E2E
:104E2000204964204572726F7200000076040020F1
:104E30004F70656E204964205375636365737366B4
:104E4000756C6C79000000000D4808B5016841F4EC
:104E5000800101600068002200F4800000900121C0
:104E60003B20FCF72FF83B20FCF71EF80022012125
:104E70004520FCF727F8BDE808404520FCF714B8AA
:104E80003038024010B504490448FBF7C8FB02491A
:104E9000491E087010BD000085C0012098C7000899
:104EA00010B58EB01C216846FBF7C2F91C2107A87B
:104EB000FBF7BEF91A484FF0204110220160194952
:104EC0004160062181600021C160C0E90412816156
:104ED000C16113020162C0E909139302C0E90B1317
:104EE0004163816341640F203C230090CDE90103BD
:104EF00003AC112384E80E0009240691CDE9074094
:104F000009AC082084E80F000D9107AA69460448FF
:104F1000FCF744FE002801D0FBF77FFB0EB010BD6C
:104F200090C00120040100A02DE9F04186B01421B9
:104F30006846FBF77DF93B480024016841F02001F9
:104F40000160016801F020010591016841F08001D4
:104F50000160016801F080010591016841F00101E3
:104F60000160016801F001010591016841F0100143
:104F70000160016801F010010591016841F0020132
:104F80000160016801F002010591016841F008012A
:104F90000160016801F008010591016841F0040118
:104FA0000160016801F004010591016841F04001D0
:104FB000016000681C4F00F04000059000220F21A6
:104FC0003846FBF709FF01224FF4C0613846FBF772
:104FD00003FFDFF858804FF4004600223146404678
:104FE000FBF7FAFE40F20F6000900125CDE9015475
:104FF000694638460394FBF7F7FDF020CDE900043D
:105000000224694638460294FBF7EEFDCDE90065BF
:10501000CDE9025469464046FBF7E6FD06B0BDE81F
:10502000F0810000303802400014024000040240C9
:10503000064805490160002141608160C16001614D
:105040004161816170470000002C0140E0C00120F7
:105050000C4810B50A4901604FF416514160002117
:1050600081600C22C160C0E904128161C161FCF75A
:105070000FFF002803D0BDE81040FBF7CEBA10BDEB
:1050800000100140248901200C4810B50A49016034
:105090004FF416514160002181600C22C160C0E9CB
:1050A00004128161C161FCF7F3FE002803D0BDE862
:1050B0001040FBF7B2BA10BD0044004068890120DF
:1050C000FEE7FEE770470A6842624A688262D1E9F9
:1050D00002231A43D1E904310B43C16A1A4321F078
:1050E000F7011143C16200207047006800F003001F
:1050F000704708444069704770B50DF1100C1143BA
:105100009CE870002343194329434268314347F622
:10511000FF639A430A434260002070BD032101608F
:1051200000207047D0F8800070470A688260D1E99B
:1051300001231A43D1E903310B43C1681A436FF3CA
:105140000B011143C1600020704710B585B00446C3
:105150003720CDE9001040200290002003904FF44A
:105160008060049069462046FFF7DFFF41F28832F5
:105170003721204600F09AF905B010BD10B504465D
:105180000A4885B001432920CDE900104020029053
:10519000002003904FF48060049069462046FFF79A
:1051A000C4FF204600F03AFA05B010BD00001080A0
:1051B00010B585B004461020CDE9001040200290C3
:1051C000002003904FF48060049069462046FFF76A
:1051D000ACFF41F288321021204600F067F905B09B
:1051E00010BD10B585B004460620CDE90010402062
:1051F0000290002003904FF480600490694620469E
:10520000FFF793FF41F288320621204600F04EF965
:1052100005B010BD30B585B000240546009401945A
:105220004FF480600294CDE9034069462846FFF7B9
:105230007CFF0B484FF4FA510068B0FBF1F041F2EB
:1052400088314843401E03D24FF0004005B030BDC6
:10525000696B0906F6D5C520A8632046F6E700006D
:105260000800002010B585B004464FF4D5700090BA
:105270000820019040200290002003904FF48060AD
:10528000049069462046FFF750FF204600F02CFAB4
:1052900005B010BD10B585B004461220CDE9001050
:1052A00040200290002003904FF4806004906946F3
:1052B0002046FFF73AFF41F288321221204600F0E3
:1052C000F5F805B010BD10B585B004461120CDE944
:1052D000001040200290002003904FF48060049062
:1052E00069462046FFF721FF41F28832112120460E
:1052F00000F0DCF805B010BD10B585B004460720FD
:10530000CDE9002040200290002003904FF48060FF
:10531000049069462046FFF708FF41F288320721D2
:10532000204600F0C3F805B010BD10B585B00446A6
:1053300000210220CDE90010C020CDE902014FF488
:105340008060049069462046FFF7EFFE204600F09B
:105350003DF905B010BD10B585B004460920CDE972
:105360000010C0200290002003904FF48060049051
:1053700069462046FFF7D9FE204600F027F905B020
:1053800010BD10B585B0044600213320CDE90010D2
:105390004020CDE902010001049069462046FFF754
:1053A000C4FE41F288323321204600F07FF805B078
:1053B00010BD10B585B004460D20CDE90010402089
:1053C0000290002003904FF48060049069462046CC
:1053D000FFF7ABFE41F288320D21204600F066F85F
:1053E00005B010BD30B585B00C4605460021032040
:1053F000CDE900104020CDE902010001049069468A
:105400002846FFF792FE22460321284600F028F99D
:1054100005B030BD10B585B0044600210C20CDE9A3
:1054200000104020CDE902010001049069462046A9
:10543000FFF77BFE034A0C21204600F037F805B049
:1054400010BD000000E1F50510B585B00446192037
:10545000CDE9001040200290002003904FF48060BE
:10546000049069462046FFF760FE41F28832192118
:10547000204600F01BF805B010BD10B585B00446FD
:105480001820CDE9001040200290002003904FF436
:105490008060049069462046FFF747FE41F288325B
:1054A0001821204600F002F805B010BD454B10B59C
:1054B0001B684FF4FA54B3FBF4F353435B1E02D260
:1054C0004FF0004010BD426B12F0450FF6D01205B0
:1054D000F4D4426B520703D504218163084610BD02
:1054E000426BD20702D00121816305E0C5228263AD
:1054F0000269D2B28A4201D0012010BD0021FFF71B
:10550000F8FD3149084201D1002010BD002802DA1F
:105510004FF0007010BD410001D5402010BD81004A
:1055200001D5802010BDC10002D54FF4807010BDA0
:10553000010102D54FF4007010BD410102D54FF4B6
:10554000806010BDC10102D54FF4006010BD0102A2
:1055500002D54FF4805010BD410202D54FF40050E7
:1055600010BD810202D54FF4804010BDC10202D5AA
:105570004FF4004010BD410302D54FF4003010BD80
:10558000810302D54FF4802010BDC10302D54FF432
:10559000002010BD010402D54FF4801010BD41045D
:1055A00002D54FF4001010BD810402D54FF48000E5
:1055B00010BD000702D54FF4000010BD4FF480303D
:1055C00010BD00000800002008E0FFFD12494FF464
:1055D000FA520968B1FBF2F141F288325143491E97
:1055E00002D24FF000407047426B12F0450FF6D0E8
:1055F0001205F4D4416B490703D5042181630846A1
:105600007047416BC90703D0012181630846704789
:10561000C521816300207047080000200F494FF426
:10562000FA520968B1FBF2F141F288325143491E46
:1056300002D24FF000407047426B12F0450FF6D097
:105640001205F4D4416B490703D504218163084650
:105650007047C521816300207047000008000020CA
:1056600030B5204B4FF4FA541B68B3FBF4F341F20E
:10567000883463435B1E02D24FF0004030BD446B60
:1056800014F0450FF6D02405F4D4436B5B0703D523
:1056900004218163084630BD436BDB0702D0012142
:1056A000816303E00369DBB28B4201D0012030BD8E
:1056B000C52181630021FFF71CFD10F4604F04D069
:1056C000410406D54FF4005030BD000C108000207E
:1056D00030BD000402D54FF4805030BD4FF480300F
:1056E00030BD00000800002014494FF4FA52096848
:1056F000B1FBF2F141F288325143491E02D24FF020
:1057000000407047426B12F0450FF6D01205F4D4FA
:10571000416B490703D50421816308467047416BFB
:10572000C90703D00121816308467047416B4906D0
:1057300001D540218163002070470000080000204F
:1057400010B5064C01202070FAF7B8FE18B9207881
:1057500020F001002070207810BD000078C00120EA
:1057600070B50546FBF73EFB044603E0FAF7A6FEDC
:10577000002806D0FBF736FB001BA842F6D34FF0FB
:10578000FF3070BD10B5846BFBF73BF8022828D0C2
:10579000206C416DE06B406D012901D001281DD1C5
:1057A0002168104888632068C16B21F49D71C16332
:1057B000A06B40F08040A0632046FBF7C7FF06289F
:1057C00001D0052805D12068FFF724FEA16B08430E
:1057D000A063012084F83400002020632046FBF7FA
:1057E000D5FE10BDFF05400010B5846B206B8228EC
:1057F00009D12068FFF70EFE28B1A16B0143A16318
:105800002046FBF7C3FE2068C16A21F00801C1628F
:10581000216840F23A508863012084F83400002067
:1058200020632046FCF726F910BD806B0068C16B31
:1058300041F48071C16370472DE9F04788B00D468F
:105840000446FBF7CFFA00268246009601963746BB
:1058500008212068FFF7ACFC002829D1B4F85000DB
:1058600001042068FFF771FC002821D1401E4FF091
:105870000808CDE9020830204FF00209CDE90409FB
:105880000120CDE9067002A92068FFF71CFC206802
:10589000FFF777FD00280BD16F462068416B11F0B0
:1058A0002A0F08D0416B09071AD5C0F838800820A4
:1058B00008B0BDE8F087416B890205D5FFF732FCDF
:1058C00047F82600761C02E0416B8904EAD5FBF715
:1058D00089FAA0EB0A00401CDFD14FF00040E7E757
:1058E000416B890703D5C0F838900220E0E7416B8F
:1058F000890603D5202181630846D9E740F23A5151
:105900008163019800BA2860009800BA686000209E
:10591000CEE710B590B004460120ADF838002068FD
:10592000FFF7E3FB002854D0606C032842D02068C6
:10593000FFF7FBFC00284AD100212068FFF7D9FBC4
:10594000606704212068FFF7D4FBA0670821206866
:10595000FFF7CFFBE0670C212068FFF7CAFBC4F814
:105960008000606C032825D00EA92068FFF73AFD5F
:1059700000282CD1606C03281CD0BDF838002065AD
:1059800001042068FFF7E7FC002820D100212068EF
:10599000FFF7AFFB606604212068FFF7AAFBA06653
:1059A00008212068FFF7A5FBE0660C212068FFF7BF
:1059B000A0FB206704212068FFF79BFB000DE0643B
:1059C00003A92046FBF7E4FD30B14FF0805010B042
:1059D00010BD4FF08060FAE7B4F8500000230204D5
:1059E0002068FFF789FC0028F1D104F1100007C8F6
:1059F0008DE8070094E80F00FFF77EFB0020E6E744
:105A00002DE9F84F0026044600963546B04600685A
:105A1000FFF700FC002827D12068FFF723FC4FF098
:105A2000805B4FF001094FF6FF7748B1A66420680C
:105A3000FFF7F0FB002817D1A06C012802D020E06E
:105A4000C4F8489000212068FFF77FFB58B918E0A0
:105A500000212068FFF779FB002805D15146206816
:105A6000FFF78CFB10B15846BDE8F88F0021206885
:105A7000FFF73FFB05464FEAD0780098401C0090A6
:105A800002E0DFF82CA00098B84202D2B8F1000F73
:105A9000DED00098B84202D34FF08070E4E768008F
:105AA00002D5C4F8449000E066640020DCE7000002
:105AB000000010C170B50546FAF70CFD034C18B98B
:105AC0002846FFF73DFE2070207870BD78C0012089
:105AD00010B5124888B014460078C00702D00320E1
